:020000040000FA
:2010000000000420816B0000A96B0000AB6B0000AD6B0000AF6B0000B16B00000000000048
:20102000000000000000000000000000B36B0000B56B000000000000B76B0000B96B00002C
:201040003D8A00003D80000029030100BB6B0000BB6B0000BB6B0000D9860000BB6B0000E8
:20106000E5D70000BB6B0000BB6B00004D8B0000BB6B00004D8A0000BB6B0000BB6B000047
:2010800059AB0000BB6B0000BB6B0000BB6B0000BB6B0000BB6B0000BB6B0000BB6B000042
:2010A000BB6B0000BB6B0000BB6B0000BB6B0000BB6B0000BB6B000000000000000000004C
:2010C000BB6B0000BB6B0000BB6B0000BB6B0000BB6B0000BB6B0000BB6B00003DA3000026
:2010E000BB6B0000BB6B0000BB6B00000000000000000000BB6B000000000000BB6B000032
:201100000000000000000000000000000000000000000000000000000000000000000000CF
:201120000000000000000000000000000000000000000000000000000000000000000000AF
:2011400000000000000000000000000000000000000000000000000000000000000000008F
:2011600000000000000000000000000000000000000000000000000000000000000000006F
:2011800000000000000000000000000000000000000000000000000000000000000000004F
:2011A00000000000000000000000000000000000000000000000000000000000000000002F
:2011C00000000000000000000000000000000000000000000000000000000000000000000F
:2011E0000000000000000000000000000000000000000000000000000000000000000000EF
:2012000001F0FF01102A2BDB10F0070F08D010F8013B013A8B422DD010F0070F42B3F6D194
:20122000F0B441EA012141EA014122F007047FF000070023F0E80256083C85EA010586EA41
:20124000010685FA47F5A3FA87F586FA47F6A5FA87F68EB9EED1F0BC01F0FF0102F007023C
:2012600032B110F8013B013A83EA010313B1F8D10020704701387047002D06BF354603389F
:20128000073815F0010F07D1013015F4807F02BF013015F4C03F0130F0BC0138704700BF63
:2012A000D0B5038804463BB15C2B0DD188290FD082290DD00120D0BD80211D4805F018F9B1
:2012C0005C2323800120D0BD002303800320D0BD03F01AFDE8B903F0FBFC02460B4652EA7E
:2012E000030116D010A7D7E90067D90141EA5261D0018F4208BF86420FD3002908BFB0F5C6
:201300007A7F0DD34FF47A72002311F07BFF0146D3E7084809F090FFD2E74FF4F051CCE75E
:201320000121CAE7AFF30080E733750000000000340A0020A800002010B5054C237833B966
:20134000044B13B10448AFF300800123237010BD78070020000000008444010008B5034B15
:201360001BB103490348AFF3008008BD000000007C07002084440100A3F5803A704700BFEF
:20138000174B002B08BF134B9D46FFF7F5FF00218B460F461348144A121A12F0E9F80E4B66
:2013A000002B00D098470D4B002B00D098470020002104000D000D48002802D00C48AFF38A
:2013C000008010F05FFF2000290004F05FFB10F045FF00BF0000080000000000000000008D
:2013E000000004203003002084310020000000000000000000B585B00346002101AA44F26C
:201400000100CDE90111039300F004F805B05DF804FB00BF72B6094B1B68DB0700D500BE45
:20142000BFF34F8F0649074BCA6802F4E0621343CB60BFF34F8F00BFFDE700BFF0ED00E0E1
:2014400000ED00E00400FA050378052B02D0094B1B681847084BD3F88424D3F8803413F0C1
:20146000FF0FF4D1054BD2B2052A08BF1846014B1B6818479407002000700240B0380100ED
:20148000014B02481B68184794070020B4380100012803D0022809D020B17047054B064807
:2014A0001B681847034B05481B681847014B04481B68184794070020A8380100A4380100DA
:2014C000AC3801002DE9F04F87B0002504460F4690469946029500E00135626801235668C9
:2014E0002146002202A8B0470028F5D18DF80600049065B3824683460AE09DF80630666889
:20150000023B7668B0479DF806309B445D451ED962680123566821460DF1060204A8B047BA
:2015200062680123566821460DF1070204A8B0479DF80730BB424FF00002214604A8DCD124
:20154000D04508D00AF1010A5FFA8AFAD5E7052007B0BDE8F08F109A9DF80630136089F896
:20156000003089F801706168023B4D6809F102022146A847002007B0BDE8F08FF0B505464F
:2015800083B03B4808F006FA044610B1204603B0F0BD384A3849394B14700C604822214684
:2015A00037481C6011F0E4FF36482146482211F0DFFF002D54D095E80700334B83E8070059
:2015C000002847D0002006F033FE08B1852844D12E4D2B7A002B49D0013BDBB205F10C02D9
:2015E0004FF0030E6E68274FDFF894C01EFB032E05F109046378EBB1A278611C1144013B38
:2016000051FA83F1224408E003F00F0307EBC30391421D60306858600CD012F8013B180620
:20162000F2D503F00F030CEBC30391421D6030685860F2D103347445DCD10B238DF804303A
:201640001248336801A99847044600289ED008F0E3F99BE70E4A1A60B4E7FFF7CBFEB7E70C
:20166000094B0B4A5D601D721A60ABE76E68E4E749140000F526002030080020340800207C
:20168000A0070020E807002094070020E0380100591A000010B508F0D9FA68B108F0DEFAB4
:2016A000044648B9064806F0D7FD034628B1FFF7A1FE2346184610BD0823184610BD00BF67
:2016C000A038010008F0B2B909F0B0B84FF0804303E0D3F83824D10707D5D3F838249207ED
:2016E000F7D5024B02481B681847704794070020B838010000B5054B83B082221B688DF85E
:20170000042001A8984703B05DF804FB940700202DE9F043057A83B0002D5ED005F1FF3ED2
:201720005FFA8EF300F10C024FF0030E00F10901334FDFF8D4C01EFB032E0C4666780022FC
:20174000964204EB020319D094F8028013F9089013F80830B9F1000F0BDB03F00F0307EB49
:20176000C3031B680132002BEAD0112003B0BDE8F08303F00F030CEBC303F2E70334A6454F
:20178000DCD100261E4FDFF880C0324602EB42020A445378EBB1002423460CE003F00F0316
:2017A00007EBC303186045682D685D6055780134E3B29D420CD99578134413F905E05B5D92
:2017C000BEF1000FEADA03F00F030CEBC303E9E7057A0136F2B29542D8D80A4A13681BB179
:2017E0001A681368002BFBD1106043680B228DF804201B6801A9984703B0BDE8F08300BF6E
:20180000E807002030080020A0070020024B1878003818BF01207047F4260020030710B5CD
:20182000044604D52046BDE8104008F097BE08F0AFFB204608F0EAFE2046BDE8104008F0A2
:201840008DBE00BF09F0D0B8014B1868704700BF30080020F0B40E4B1F688FB13E7A96B1A0
:2018600000231C463A4602E0DCB2A6420BD9557A854203F1010302F10302F5D101B10C70AD
:201880003846F0BC70473B681F68002FE6D1F7E730080020436811461B68184700F00F033B
:2018A000082B0AD802064CBF054A064A02EBC303186810B143681B6818471020704700BF3A
:2018C000A0070020E807002038B5094B1C6864B1054602E023681C683CB1636829461B6872
:2018E000204698470628F5D038BD062038BD00BF3008002038B50D46044608F01BFA18B129
:20190000054B1B78022B01D0082038BD29462046BDE8384008F01EBAF526002038B50D468C
:20192000044608F007FA18B1054B1B78022B01D0082038BD29462046BDE8384008F09CBA5D
:20194000F5260020F8B543689B6805460C4616461BB19847062800D0F8BDEEB92B7AA34269
:201960001CD9093504EB44042C44677897B133463A469A420BD9A378A2190136D05CFFF77E
:201980004DFFF3B2BB4205D262789A42F3D800231B78FFDE0020F8BD0720F8BD7378FFDEF5
:2019A00070B54368DB6805460C4603B198472B7AA3421AD9093504EB44042C4466789EB155
:2019C00000252B46324693420BD2A37862190135D05C09F009F8EBB29E4205D9627893424B
:2019E000F3D300231B78FFDE70BD00235B78FFDE43681B6903B118471846704770B50A4BBD
:201A00001D687DB12E7A4EB100242146013400222846FFF797FFE1B2B142F7D32B681D6828
:201A2000002DEFD170BD00BF3008002070B5094B1D6875B12E7A46B1002421460134284684
:201A4000FFF7AEFFE1B2B142F8D32B681D68002DF0D170BD3008002070B503780446852B6D
:201A600000F2BF80DFE813F00002B201BE003A026602E300EA00BD00040117012A01BD00C5
:201A8000BD00BD00BD003D01BD00BD00BD00BD00BD00BD00BD00BD00BD00BD00BD00BD00F5
:201AA000BD00BD00BD00BD00BD00BD00BD00BD00BD00BD00BD00BD00BD00BD00BD00BD0056
:201AC000BD00BD00BD00BD00BD00BD00BD00BD00BD00BD00BD00BD00BD00BD00BD00BD0036
:201AE000BD00BD00BD00BD00BD00BD00BD00BD00BD00BD00BD00BD00BD00BD00BD00BD0016
:201B0000BD00BD00BD00BD00BD00BD00BD00BD00BD00BD00BD00BD00BD00BD00BD00BD00F5
:201B2000BD00BD00BD00BD00BD00BD00BD00BD00BD00BD00BD00BD00BD00BD00BD00BD00D5
:201B4000BD00BD00BD00BD00BD00BD00BD00BD00BD00BD00BD00BD00BD00BD00BD00BD00B5
:201B6000BD00BD00BD00BD005101860060011C02E301E3008C4B8D49D3E9000290478C4B3A
:201B80001C684CB1894D636820461B682946984723681C68002CF6D1864C63680BB10D2064
:201BA0009847FFF743FF01F075FB834B1B68002B00F0FD810120814D08F016F82A78931E7B
:201BC000DBB2062B00F215827D49CB5C13B106F015FB2A78022A40F00C8208F081F80123E6
:201BE0002B7070BD754D2A78931EDBB2062B00F2CD817349CB5C13B106F000FB2A78022AA4
:201C000040F0C48108F06CF86A4B5B6803222A700BB102209847664B1D6845B16B68284692
:201C20001B68214698472B681D68002DF6D15E4B2146D3E90002BDE87040104790F902309A
:201C40008278002BB4BF5F4B574B02F00F0203EBC203D3E90002214690470028C1D0A0781D
:201C60000207BED00307BCD4BDE8704008F062B9504B5B680BB1082098474D4B1D68002D60
:201C8000AFD06B6828461B68214698472B681D68002DF6D1A5E7474B5B680BB1092098470A
:201CA000434B1D68002D9CD06B6828461B68214698472B681D68002DF6D192E73D4B5B689E
:201CC0000BB10A2098473A4B1D68002D89D06B6828461B68214698472B681D68002DF6D199
:201CE0007FE7344B5B680BB10F209847304B1D68002D3FF476AF6B6828461B6821469847E3
:201D00002B681D68002DF6D16BE72C4C2378062B00F04F8103F0FD03052B7FF462AF07F0C3
:201D2000E9FF0223237070BD244DFFF77FFE08F071FD2A78931EDBB2062B31D82049CB5CE2
:201D400013B106F05BFA2A78022A29D107F0C8FF174B1C6800232B704CB11B4E63682046B3
:201D60001B683146984723681C68002CF6D10E4B1549D3E9000290470E4B5B680BB10E2036
:201D800098472B78023BDBB2062B3FF62AAF0C4AD35C002B3FF425AFBDE8704006F02EBACE
:201DA000082AD5D1D2E700BFE8070020BC380100300800209407002034080020F526002025
:201DC00098380100A0070020C03801009C4DFFF72DFE01F055FA2A78931EDBB2062B00F225
:201DE000D9809849CB5C002B00F0D480022A03D0082A01D007F07EFF934B5B6802222A703E
:201E00000BB101209847914B2146D3E9000290478F4B1D68002D3FF4E4AE6B6828461B6819
:201E2000214698472B681D68002DF6D170BD844D2B78032B00F0C68007F01AFF00283FF4E0
:201E4000D0AE2A78931EDBB2062B40F2EB80814806F0A6F92A78022A01D0082A01D107F05E
:201E60003FFF06232B7070BD754B1B78032B00F0A580082B00F0A280734B5B680BB10020FB
:201E80009847754B1D68002D3FF4ABAE6B6828461B68214698472B685D68002DF6D170BDE2
:201EA000674D2B78032B7FF49CAE08F0EFFC00283FF497AE2A78931EDBB2062B00F2BB801F
:201EC0006049CB5C13B106F099F92A78022A40F0B28007F005FF04232B7070BD584D2A7885
:201EE000082A5CD0931EDBB2062B00F286805549CB5C002B00F08180022A00F087800523F1
:201F00002B70514B5B680BB1032098474F4B2146D3E9000290474E4B1D68002D3FF461AEE6
:201F20006B6828461B68214698472B681D68002DF6D170BD444B5B680BB103209847434BC0
:201F40004649D3E900029047414B1C684CB1434D636820461B682946984723681C68002C83
:201F6000F6D1374D2B78062B1ED0082B0BD09A1ED2B2062A4DD833498A5C002A49D0022BE3
:201F800001D007F0B7FE02232B7070BD082A7FF43BAE37E62F4806F003F92A7826E70223EF
:201FA0002B7007F0B1FEACE707232B7070BD207A01E607F09FFE0823237070BD2848FFF7F5
:201FC0004BFD59E708F062FC00283FF435AF2A78931EDBB2062B2BD81A49CB5C13B106F08C
:201FE0000DF92A78022A23D107F07AFE04232B7022E7082A7FF4F3ADEFE5164806F0D0F8AA
:202000002B78022B02D0082B7FF479AF07F068FE75E7104806F0C4F82B78022BB3D0082B07
:20202000B1D0AEE70749CB5C002B7FF414AF0EE7082ADBD1D8E7082A7FF44DAF49E700BF90
:20204000F52600209838010094070020E8070020300800200800002034080020C8380100CD
:20206000C43801004360CA699A4205D38A6902600B67CB610020704701F1280202608B679F
:2020800000207047F0B504680E7A002C00F07284A4F212347C2C00F2C1827C2C00F2BE822B
:2020A000DFE814F074020003DE02CF02C7022A0307032303BC02BC02BC02BC02BC02BC0291
:2020C0006702D702BC02BC02BC02BC02CC010F03E602BC02BC02BC02F401EE038C03BC0292
:2020E000BC02BC02BC02FF00CB034803BC02BC02BC02BC02BC02BC026402BC02BC02BC027A
:20210000BC0219019B039303AC035703BC02BC02C3038403B40339035F03BC02BC024103CC
:20212000DB015003ED00BC02BC023203DB00F503BD00BC03BC02BC02BC02BC02BC02BC020F
:20214000BC02BC02BC02BC02BC02BC02BC02BC02BC02BC02BC02BC02BC02C900D303BC027C
:20216000BC02BC026703BC02BC02BC02BC02AC00BC02BC02BC02BC02AC00BC02BC02BC02F7
:20218000BC02BC02BC027D00C002BC02BC02BC02BC02B800BC02BC02BC02BC02B800012441
:2021A0000025002A00F0CD8307795755A3424FF00005057140F27C83171901343D70B04D85
:2021C0000F7D2D682D78AF4200F0B0838F7DAF4209D10025A342057140F24D85254601342A
:2021E0000AB107795755DFF8A0C2A64F9CF800503F780135EDB28CF800507BE101250024E0
:202200000AB1077917554024AB42047140F289836C1CC6E701240025002AE2D1E3E70124C8
:202220000025002A40F031848D7D0571A34240F262830134FFE001250024002A00F03D83B6
:2022400007791755AB424FF00504047140F27E83274602EB050C6C1CFDE201250024002A6F
:2022600040F011840624AB42047140F23F8301350C7D0471AB4240F291836C1CD4E7012549
:202280000024002A40F003840524AB42047140F228836C1C2425A342057140F27583651CFA
:2022A000E0E701240025002A00F0FA83077957554FF0000CA34280F804C040F29084651C17
:2022C0000027AB4202F804C0077140F2F383541901352770F3E001250024002A00F0EF8329
:2022E00007791755AB424FF02404047140F2C183274605F1010C002463455755047140F224
:20230000A98325460CF101071024BB4202F80C50047140F29083254607F1010C01246345A3
:20232000D555047140F2788325460CEB04070524BB4202F80C50047140F25D83254607F1FE
:20234000010C24246345D555047140F24A8325460CF101070124BB4202F80C50047140F253
:202360003683254607EB040C03246345D555047140F228830CF1010702F80C40BB4291F81B
:2023800016C080F804C040F218837C1C0425A34202F807C0057140F20B8302EB040C2F464F
:2023A00001342425A3428CF80070057140F2FB822F46651C1755AB424FF00204047140F266
:2023C0009F82274602EB050C6C1C0225A3428CF80070057140F2DD822F46651C1755AB4293
:2023E0004FF00504047140F27C82274602EB050C6C1C2425A3428CF80070057140F2C482ED
:202400002F46651C1755AB424FF00604047140F26D82571901353C700F7D0771AB4240F219
:20242000BD826C1C5755A3428D7D057140F26382171901343D70124D2D6851E0012700242A
:20244000002A00F04082057915559F424FF00004047180F0F5827D1C39E101250024002A11
:2024600040F017830224AB42047140F249826C1C0225A342057140F28C82651C04E700BF98
:2024800038080020F6260020F826002001240025002A00F09883077957559C424FF0020593
:2024A000057180F05883671C1555BB424C7E047140F2E48202EB070C7D1C8CF80040002419
:2024C000AB42047140F221826C1C0AB107795755C64D91F814C02D682F78BC4500F01A821D
:2024E000DFF810E3DFF810C36F788EF8007000258CF80050BD423FD3BD4F3D780135EDB2EB
:202500003D70AE4240F2CA810925A342057140F25583651C002A00F0128307791755AB4205
:202520004FF00404047140F2B682274602EB050C6C1C8CF800700F7AAD4D2D78AF4240F243
:20254000AC8305EB450501F10907DFF8A0C217F805E080F804E03D449C42CCF8005080F0A4
:202560007E82671C002A7FF46EAFACE101240025ABE701250024CDE70725A342057140F2FE
:202580009281651C002A7FF45BAE96E1002A00F0EB8204791470012B4FF00B04047140F2E1
:2025A000238302250127D455AB420F7D077140F25B8205F1010C022463455755047140F2D9
:2025C000448225460CF101070224BB4202F80C50047140F22B82254607F1010C02246345BA
:2025E000D555047140F213820CF1010702F80C40BB4291F819C080F804C040F2F7817C1C4D
:202600000025A34202F807C0057140F2E581171901343D70764F00253D7072E70023036059
:202620001846F0BD002A00F0F282057917460124C4E5002A00F0F28205794FF0010C0027D9
:20264000CCE7002A00F0EC82057901274FF0000CBAE7002A00F0FF8207799446012468E744
:20266000002A00F0D78207794FF0010C0025A2E75E4C002A00F0E682077924689446012535
:202680008CF8007024780F7DA74200F0B9818F7DA7427FF414AF0A249D42047180F0F58277
:2026A0006C1C00E6002A00F0D28204790125002779E7002A00F0B08290F804C00124002730
:2026C0009EE7002A00F0C182047901250027DFF81CC1D455DCF80040AB426778077140F2E7
:2026E000A08102EB050C0135CAE7002A00F0B1820579174601248CE7002A00F08482047977
:2027000001274FF0000C71E7002A00F0A7820779944601246DE6002A00F08E82047901270A
:202720004FF0000C28E6002A00F0A18207799446012436E6002A00F000821446077927705B
:202740000125BCE6002A00F08E820779944601243BE6002A00F07282057901274FF0000CE8
:20276000E5E5002A00F0608290F804C0012400270CE61E4C0125276800241AB190F804C0AF
:2027800002F804C03C780F7DA74200F0E9808F7DA7427FF438AD0224AB42047140F2708200
:2027A0002C460135002A7FF42CAD2CE5002A00F04782057901274FF0000CCBE5002A00F04C
:2027C000BC8104799446012577E6002A00F01682057901274FF0000C96E5002A00F04582E3
:2027E00007794FF0010C002585E500BF38080020F7260020F6260020F8260020002A00F08E
:20280000308205794FF0010C002787E5002A00F00F8205794FF0010C0027A5E5002A00F069
:20282000F48105791746012404E6002A00F0218205794FF0010C002783E5002A00F0F68192
:2028400090F804C0012500243AE5002A00F0EA810779944601248CF80070C14FC14D3F6806
:202860002D7897F801C0AC4540F2148297F802C03D44A34215F80C5005716CD9651C7CE7EB
:20288000002A00F0D7810579012700240CE6002A00F0B681047917460125BCE540F299331A
:2028A00003600120F0BD40F26D3303600120F0BD4FF4617303600120F0BD0524AB42047111
:2028C00044D96C1CC9E79F42027180F0B9807D1CA34C2468AB426778077140F2A2800135C4
:2028E000D0E640F2553303600120F0BD40F2573303600120F0BD40F2593303600120F0BD5B
:2029000040F2513303600120F0BD4FF44F7303600120F0BD0525A342057140F21781651CCA
:20292000DBE440F2833303600120F0BD0D6AA3422D7805713FF652AC40F2893303600120A3
:20294000F0BDA3420271B3D9013438E440F26E3303600120F0BD40F2723303600120F0BD89
:202960000324AB4204713FF61BAF40F2773303600120F0BD08240471002B7FF407AE40F29C
:20298000123303600120F0BD40F2563303600120F0BD40F2523303600120F0BD4FF45673E1
:2029A00003600120F0BD4FF4547303600120F0BD40F24F3303600120F0BD4FF4537303605A
:2029C0000120F0BD40F24B3303600120F0BD40F24A3303600120F0BD40F219330360012066
:2029E000F0BD40F2493303600120F0BD4FF4467303600120F0BD4FF4527303600120F0BDE5
:202A000002249D42047180F0F4806C1C40E540F2173303600120F0BD40F2453303600120D0
:202A2000F0BD4FF44A7303600120F0BD40F2163303600120F0BD4FF4517303600120F0BDD4
:202A400040F2273303600120F0BD40F2153303600120F0BD40F2433303600120F0BD40F203
:202A6000263303600120F0BD4FF4457303600120F0BD40F2423303600120F0BD40F22E3335
:202A800003600120F0BD0779BCE40779CAE40779A4E407798EE440F2213303600120F0BD06
:202AA000A342027140F29B80013400259C420571C0F0938040F2353303600120F0BD2424ED
:202AC000AB420471D5D96C1C00259C420571C1D2013410259C420571ADD2013401259C42DC
:202AE000057199D22C4405259C42057183D2013424259C420571BFF474AF013401259C42D1
:202B00000571BFF464AF2C4403259C420571BFF459AF01348D7D05719C42BFF44EAF01345A
:202B20000425A34205717FF643AF01342425A34205717FF638AF651C94E40125BFE404248B
:202B4000AB420471A7D90F7A6C1CF5E440F2413303600120F0BD40F22D3303600120F0BD0F
:202B600038080020F82600200B24012B04713BD902240D7D05719C42BFF476AF013402259B
:202B8000A34205717FF661AF013402259C420571BFF44CAF01340225A34205717FF637AFE5
:202BA00001344D7E05719C42BFF420AF013400259C420571BFF410AF01342BE54FF44873DC
:202BC00003600120F0BD02259C420571C3D201344D7E05719C42BFF451AF651C6FE44FF496
:202BE0004D7303600120F0BD40F2133303600120F0BD4FF44B7303600120F0BD012468E795
:202C00000125FFF735BB0124CBE7012413E40124FFF7D5BA0124B2E70124C8E70124BAE7B3
:202C20000124B2E7012418E6012479E701243CE7012469E70124CBE701246BE7012452E7C5
:202C400001245BE7246801251CE5012540E601248FE70124DEE4374601246DE40124FFF77E
:202C600019BB01243AE7012402E401242CE701245CE701243CE740F28E3303600120F0BD23
:202C80004FF45F7303600120F0BD40F2333303600120F0BD00231B78FFDE024A00231360B0
:202CA0001B78FFDE3808002070B90B681A7B202A01D0062070471A4652F80E1F9961918831
:202CC00092799A7799837047032070474360CA699A4210D38A6910B40260C8690C6FC01AF7
:202CE0001C441A44C86100380C6718BF01205DF8044B8A61704701F12802026000208B6774
:202D0000704700BF2DE9F0470B7888B00D4606460E2B14D8DFE803F008180808130D28132C
:202D200013181308080808000024204608B0BDE8F0874B78DA0930D15B09012B4CD006245A
:202D4000204608B0BDE8F0870368002403F134022046C3E91E44C3E920445A671C845C62DD
:202D6000DC6208B0BDE8F087027A8B78002A00F06581817A0930002900F05E81F17A415C8E
:202D80009942D1D01B061ED4EF7807F0FD03012BCAD0002F65D00324C7E713F0600FC3F31F
:202DA000411200F09180012AC9D18B78212BC6D1B1F80720072AC2D10168681C183100F05A
:202DC00073FA0446B1E7EC78002C00F09D80032C14BF03240024A8E78B780768202B00F07E
:202DE0009B80222BABD1B1F80730002BA7D1B1F8035097F820303D8405F0010203F00103E1
:202E00009342154690D0C3691BB1C2F10301C9B29847002D88D1337A012B40F20B81737B0E
:202E200006F10C04002B00F00381B37BE05C07F057FD337A012B40F2FD80737B012B40F263
:202E4000F780B37B23442C46587807F049FD07F13403C7E91E55C7E920557D62FD627B6750
:202E600063E73568012A05F10C0140F2DF80727B012A06F10C0340F2D7800691B27B704988
:202E800005911344AC6A93F80180002C60D1EA6FEB6AAC67C5E91F42002B00F0B480296B13
:202EA0001846002205F1240383E803004046EA6205A9FEF733FD0446F369002B3FF435AF7A
:202EC00030460021984730E703F01F03012B7FF436AF8C78062C7FF432AF05A8039200F010
:202EE000D5FC03AA00920746EA78297930463B46FEF7E8FA05283FF418AF039A3946681CDC
:202F000000F0D2F9044610E7F369002B3FF40CAF30460121984708E7B1F80720072A7FF466
:202F20000EAF3B73B1F80730DBB27B7300200E37CDE90573079000F08BFF002005A9FEF764
:202F4000D9FC0446002867D0002000F089FFECE6D5F88490686A4C4528BF4C4605F1340A98
:202F60002246514610F0DCFAE86FEA6AEF67A9EB04030AEB04010444C5E91D13C5F8804043
:202F8000002A43D005F12C0797E8030005F12404002284E80300EA62002B3BD091461BE046
:202FA000696F686A10F0BCFAD5E91D32A96AC5F880100B44521AC5E91D32F36913B100214B
:202FC00030469847EB6A13B397E8030084E80300AB6FC5F82C90EBB1AA6A9342E0D2696FEE
:202FE000686A1A4610F09CFAD5E90932A96FE967521A0B44C5E9093253B1404605A9FEF7D7
:203000008DFC044658E700236B6255E700236B62002451E76B6AEFE70A4B049603A903934A
:2030200000F020FC04468FE73B78FFDE7B78FFDE2B78FFDE6B78FFDE0B78FFDE5378FFDE1C
:20304000CD2C0000A92C000010B503681C8CE40784B015D50B46017A012916D9417B00F12F
:203060000C0481B1817B605C91060CBF0124002401A9CDE901320394FEF73CFC04B010BDD3
:20308000082004B010BD0B78FFDE00235B78FFDE0368D3F880007047F0B50468238CDB0745
:2030A00083B022D50546002016460F4600F0D0FEA26F42B9636AE3B11124002000F0D0FE8C
:2030C000204603B0F0BD964228BF1646616F3246384610F025FAD4E91D239B1B3244C4E954
:2030E0001D23C4F880600024E7E70824204603B0F0BDC4E909762A7A012A12D9697B01291C
:2031000005F10C020FD9AB7B0849009113440C34587801946946FEF701FC041E08BF92247F
:20312000CBE75B78FFDE1B78FFDE00BF65200000002070472DE9F04F4B6885B0CDE90002AD
:203140000C46002B71D006F0F1FEE568019B9D4228BF1D468146002D7CD04FF0000A564695
:20316000D3464FF00108D4E90113AB421F4628BF2F46E9B13A4609EB060010F0D1F9D4E9D4
:203180000223D21BDB1BC4E90223C4F804B0ED1B3E442AB3002B08BF4FF00008002DE2D165
:2031A000009BC3F800905E60404605B0BDE8F08FABB120463B4650F8101B4A68D2F804A036
:2031C00009EB0602D047D4E90223D21BDB1BC4E90223ED1B3E445AB14FF0010ADAE7E3685A
:2031E000BAF1000F04D15BB99846002DBBD1D7E722681268126822604FF0010A002BF3D09F
:203200002168F1B1CDF808B003E0A36821680133A3604B6800225F6802A80123B8470028C7
:20322000F3D12061002D9ED1BAE70B681B681B68002B88D18B68002B85D1036043609846B7
:20324000B2E76160002EABD0019BB34288BF4FF00008A5E72E464FF00108A1E7054B0528FF
:20326000187004D0044A137823F0020313700348FEF7F2BBF9260020FA260020F0380100E9
:2032800008B50020FEF7CAFABDE808408020FEF7C5BA00BF08B50020FEF7D4FABDE808404B
:2032A0008020FEF7CFBA00BF70B5C38893421E4628BF1646934284B00D4612D800240020BB
:2032C0000394CDE9015600F0C3FD01A98020FEF711FB044688B1002000F0C2FD204604B0E3
:2032E00070BD8020144606F015FDB4FBF0F202FB1044B4FA84F46409E1E706F0F1FE8028D5
:203300000BD1094A094B92E8030083E80300002000F0A6FD204604B070BD002000F0A0FD98
:203320001024204604B070BD28390100600800202DE9F04F0B780E2B89B018D8F3B1013B0E
:203340000D2B1BD8DFE803F01F0E281A354C1A1A1A1A0E666F07B24B1B78012B02D0012097
:20336000FFF77CFF0024204609B0BDE8F08F852B04D1AB4B1B78032B00F0408106242046F8
:2033800009B0BDE8F08FA64B1B78032BF6D00320FFF764FF0624E6E7A24804F085FE0028DC
:2033A000E0D0A14B01221A60BFF36F8FBFF34F8FD8E705230DF115008DF8143006F0F8FDE6
:2033C0009DF81530994E002203F01F043260032C00F2B980DFE814F0E800B90099008D0076
:2033E000C87803280D46C9D0904E3368002B00F003810022716832609847044600287ED131
:203400003368002B00F00581AB78002BAAD106F0F1FDA8E7824B1B78002BA3D00020FFF720
:203420001DFF00249FE74FF08043D3F8383413F0010F7B4B1B7806D0022B93D00220FFF7A3
:203440000DFF00248FE7012B89D18BE7BDF81B30002B00F0D880092B28BF09239946FEF740
:20346000F3F90546002800F0DB81BB464FF0090ACDF80CB04FF0000801E008F101086A68D1
:20348000012357682946002203A8B8470028F4D12A682B7A15681C44C244E4B2002DE7D18C
:2034A000634D644928464A4610F03AF82C71A5F802A0FEF7ABF918B1EB7943F02003EB712B
:2034C000FEF7C2F95C4BBDF81B2018600020C3E90159DA6000F0BCFC58498020FEF71EFAD7
:2034E0000446002800F09F81002000F0B9FC062C05D105A8FEF7E8F90446002C73D006F04B
:20350000E5FD204609B0BDE8F08F9DF81900020707D005A9FEF7C2F906280446EDD19DF8CF
:20352000153013F0600F0ED19DF816303C4A9DF819401278012B00F0B980032B00F0A68083
:20354000002B00F0C6800624D9E79DF8190003A9FEF780F90546002859D09DF80C1005AA5C
:20356000FEF798F906280446C7D19DF8152012F0600FC4D12A4B9DF80C101B78D20940F021
:2035800014819DF816200B2AB9D1052B40F0B280BDF81730FF2B00F2FC809DF817202846AC
:2035A000FEF7D0F90446A8E713F0600FC3F341179FD1DB0948D19DF81630032B00F09C8072
:2035C000092B00F0A880012B93D1BDF81730012B8FD1FEF71BF9002800F0D980184A137820
:2035E00023F00203137033686BB106F079FD044600287FF4B7AE0AE70E2480E70420FFF71F
:203600002DFE0624AFE606F057FD0024ABE6102475E70C4B1B68082B33D006F04DFDA2E659
:20362000F9260020680800205C700240600800206C080020F438010048080020303901008A
:20364000FA260020300100109DF81620062A00F08780082A73D0002A7FF44BAF7B497C4B60
:2036600009781A80890744BF02221A7078490DF115000222FFF718FE0446062C7FF43DAF0F
:2036800037E7744B1B68002BC7D16BE625073FF55AAFBDF81730002B7FF455AF052A01D0AF
:2036A000200727D1204606F045FC9CE721073FF54AAFBDF81730002B7FF445AF052A01D0E8
:2036C000230717D1204606F063FC204606F09EFF89E7052A01D027070CD1204606F036FC1B
:2036E0005B49034602220DF115000B80FFF7DCFD044602E7082402E7BDF81730012B7FF469
:20370000F8AEFEF783F8002841D0504A137843F00203137067E7504C2378043B012BE9D8C9
:203720009DF81730BBB3012B33D1FEF767F92378052B3FF458AF0520FFF790FD53E7464A43
:203740001278052A47D0042A7FF4D3AE404B1F703F490DF115000122FFF7A6FD04468CE749
:203760009DF81830022B3FF471AE032B36D0012B7FF4BFAEBDF81B30002B3FF444AF3749DC
:203780000DF115001222FFF78FFD044675E70F24B5E60724B3E6FEF749F92378042B3FF4F4
:2037A00022AF0420FFF75AFD1DE79DF816705FB30A2F7FF4A4AE052B9CD128460192FEF705
:2037C00017F92349019A03460B700DF11500FFF76BFD044691E61E4A1370B9E7BDF81B3051
:2037E000002B3FF410AFBDF819109DF8170000F01DFB014600283FF47CAE0A780DF11500B9
:20380000FFF752FD044638E7052B7FF473AF10490DF1150002220F80FFF746FD04466CE641
:203820004FF0090A3CE606F05BFC802808D10C4B93E8030086E80300204600F011FBD2E6E6
:20384000204600F00DFB102459E600BFFA2600206C08002034010010F92600201439010032
:203860002839010038B505460C4606F039FCA84207D194E80300044A82E8030000231846B4
:2038800038BD1023184638BD6008002008B1402303600148704700BF6C080020F0B40D7A28
:2038A0000DB101F109050468002C59D06FF4AB763444142C00F24A81142C00F24781DFE8CF
:2038C00014F05400E700EE00F500FC000301090110011701450145011E0125012C0145014F
:2038E0003B0033012700390115003F0101250024002A40F0DB818A8AAB424FEA12220271C2
:2039000040F2338140F26D1303600120F0BC704701250024002A40F0CD814A8AAB424FEA3C
:203920001222027140F226816C1C8A8A0271A34240F27B81651CDEE701250024002A40F0FB
:20394000B7810A8AAB424FEA1222027140F217816C1C4A8A0271A34240F26C81651CDCE7ED
:2039600009240471002B00F0F680002A00F0A48104791470012B4FF00404047140F2F0804A
:203980000227012694559F422D78057180F089817E1C0024B342D555047140F27D8125468B
:2039A000771C0024BB429555047140F2708125467E1CFF24B342D555047140F26381254694
:2039C000771C0124BB429555047140F2568125463E190124B342D555047140F249812546E8
:2039E000371900249F429555047180F03C8125467E1C09249E42D555047180F02F812546AA
:203A0000771C21249F429555047180F0228126467C1C09259C42D655057180F01581161995
:203A2000013435700E7C0671A34240F20881651C16550E8A9D424FEA1626067180F09F802D
:203A400057196C1C3E708E7C06719C4280F0F280651C16554E8A9D424FEA1626067180F080
:203A6000898057196C1C3E700E7D0671A34240F2DC80651C1655898A9D424FEA1121017167
:203A800073D22A44117040F26D13036001203DE7002A00F0B38004790127002672E7002AFD
:203AA00000F0A58005790126002772E7002A00F0978005790127002673E7002A00F0898052
:203AC00005790126002774E7002A5DD005790127002676E7002A00F09E800579012600273B
:203AE00077E7002A00F0958005790127002678E7002A00F08C8005790126002779E7002A92
:203B000000F083800579012700267AE7002A00F08A800679012400277BE7002A00F0818019
:203B20000579164601247CE7002A78D006791746012487E7002A70D006791746012492E75E
:203B4000002A3FF4DFAE017911709CE7002303601846F0BC704740F2571303600120F8E7B7
:203B60004FF4AC7303600120F3E740F26B1303600120EEE740F2691303600120E9E740F248
:203B8000671303600120E4E701240122A342027173D914440122A342027169D914440022E1
:203BA0009C4202715FD2013409229C42027155D2013421229C4202714BD2013409229C4287
:203BC000027141D201340A8A0271A34237D9651CB7E60124FF229C42027153D20134D4E764
:203BE00001240022A342027151D90134F2E701240022A34202714FD90134F2E701242A7852
:203C00000271A3424DD90134F2E70124D1E70124CAE70124C3E70124BCE7012485E6012419
:203C200097E60124CFE70124C8E74FF4B573036001208EE74FF4B4730360012089E74FF453
:203C4000B3730360012084E74FF4B273036001207FE740F26313036001207AE74FF4B17309
:203C60000360012075E740F25F130360012070E74FF4AF73036001206BE740F25D130360A5
:203C8000012066E74FF4AE730360012061E740F25B13036001205CE74FF4AD730360012038
:203CA00057E740F259130360012052E70679E1E60679BDE60679CCE60422012B02717FF698
:203CC0004FAF02249BE700BF0B780E2B0BD8DFE803F0080808080A0C080A0A0A0A080808A8
:203CE00008000020704706207047F0B54B78DA0985B00C46064611D15B09012B02D0062080
:203D000005B0F0BD8C78002CF9D102681373036A002B3AD0214698472046F1E713F0600FBF
:203D2000C3F3411215D0012AE9D18B78072B07D0082BE4D1F268481CB169FFF7B5FADFE779
:203D4000B1F80720182ADAD1C169601CFFF7ACFAD6E703F01F03012BD1D18D78062DCED1ED
:203D600003A80292FFF792FD02AA00920746E278217930463B46FDF7A5FB0528BFD0029A1D
:203D80003946601CFFF790FABAE71846B8E700BF70B54FF0805286B0D2F8A830D2F8A420AF
:203DA00000926FEA83436FEA93430B4A0B4E9BB202A80D210BF0EEF902AD002404E015F8AA
:203DC000013B06F8013B013402A80FF0D9FB8442F5D306B070BD00BF4C3901001C270020A2
:203DE00038B5114B53F8204023780BB9A01C38BD0020FFF74BFD217891B12246C4F1010563
:203E00005319DCB2234620F8141012F8011F0029F6D101335B00DBB243F44073038038BD6B
:203E200040F20233FAE700BFB439010040B1052808D8054A105C28B1044B53F820300BB155
:203E4000FFF7CEBF00207047CC390100B439010072B6024A1368013313607047AC080020F3
:203E6000034A1368013B136003B962B6704700BFAC08002010B50446006830B1002107F03D
:203E800029F954F8040F0028F8D110BD2DE9F043038883B0044643B1B3F5867F0CD1822969
:203EA00010D0012003B0BDE8F0834FF486730120238003B0BDE8F08300230380032003B0EF
:203EC000BDE8F08302F00CFFBFF35F8F19491A4B0E6800220A601F781A70FFB2BFF35F8FF2
:203EE000164D02F001FF28680028DED0DFF85090DFF8508003E055F8040F0028D5D090F811
:203F00004A3026FA03F3DA07F5D590F8493047FA03F3DB07EFD502F0F3F90028EBD02B6834
:203F2000D9F80020009218464246022102F086F9E1E700BFC0080020FB2600206000002054
:203F40005C280020E53F000010B50C4A90F84B30126882B001330092044680F84B30084A7A
:203F600003468021203002F069F9064B19782246002002B0BDE8104007F030B95C2800201E
:203F8000493F00007131002010B4094A094C13681943116021780346012202FA03F30B43DE
:203FA000DBB2237004485DF8044B07F045B900BFC0080020FB2600206800002010B504467D
:203FC00090F84A1090F8490002F04CFE10B994F8480010BD01280ABF94F84800002080F032
:203FE000010010BD70B582B0044602F089F908B902B070BD04F12006304602F081F90546F6
:204000002046FFF7DBFF01280FD00028F0D1002DEED1304602F05AF90D4B22462846197813
:2040200002B0BDE8704007F0D9B8002DE0D0094B094A1B68009300253046234684F84B503C
:204040007E2102F0FBF8054B28462246E7E700BF703100205C280020493F00007231002079
:20406000F8B507F02FF8304B304C187007F02AF82F4B304F187007F025F82F4922682F4BCC
:2040800008700025FF2139727B60FD60002A42D02B4E09E091F84A00F9683A72834054F8F3
:2040A000042F0B43FB60B2B392F84A3092F84910526C03F01F0343EA41131F2BC6BF03F0C2
:2040C0001F0331464FF0A04103F5E07342F08C0241F82350236893F84A1093F8490002F03A
:2040E0007FFD226892F84A3092F8490003F01F0343EA4010012104F049FA2168387A91F834
:20410000492082424FF00103C4D0FF28C2D054F8042F002AC8D10B48002106F0DBFFBDE8B7
:20412000F840044802F0B2BD723100206000002070310020B008002071310020893F000034
:20414000000300506800002030B5174B83B000221A6003F0DBFF00BB002003F0F3FF134B83
:20416000134A93E80300FF250090ADF80410062400231048ADF8005069468DF802408DF862
:20418000043004F079FC58B901210A4804F0C8FC084804F0B9FC03B030BDFDF72BF9DBE7D2
:2041A000FDF728F9F0E700BFC4080020003A0100E5410000083A0100014B1868704700BF82
:2041C000C408002008B5064A13680133136002F0A3F900B908BDBDE8084002F083B900BFDE
:2041E000C4080020042800D07047FFF7EBBF00BF014B1868C0097047C408002010B58468D8
:2042000082B01CB194F90830002B01DB02B010BD236A002BFAD01A68002AF7D0074909788E
:2042200031B11B6A23B101909847236A01981A68002302B0BDE8104000F036BDFC2600203C
:204240002DE9F047124C82B02468DDF828A08CB106460F4691469846656843464A46394660
:20426000304625B1CDF800A0A847054638B92468002CF1D10025284602B0BDE8F087B3795B
:20428000012BF8D13A463146002000F01DFBF2E7C80800202DE9F04F2DED028BB34CB44E44
:2042A0008BB0054620460295884601F071F9C4F8A0500346307008BBA279013A032A62D93C
:2042C000636823F07F4323F0FF03002B4FD06379032B00F02881208900F0DAFD0746002857
:2042E0004DD0D0E90F9700F0CFFDB9F1000F00F091809E493846C847337843B30027C22BA3
:204300002BD0DFF88892384600F0BEFD3278C32A69D0BF2A84BFA02232700221238993487E
:2043200000F0AEFFD9F80010039108460FF028F9039902468D4801F09FFB41468B4800F06F
:20434000ADFF414682B2029800F02EFE337818460BB0BDEC028BBDE8F08F384600F094FD23
:20436000337818460BB0BDEC028BBDE8F08FC3232089337000F08CFD07460028B1D13378D2
:20438000002BE4D0BBE703900299208900F0FEFC0746002842D0039B62790893CDE9063351
:2043A0004023ADF8163062BB238972484522022100F066FFA27A002A40F0B08007AB009362
:2043C0006A480DF11603002206A901F01FFB70B9089B002B2ADADFF8B491674BC9F800307E
:2043E000822333708FE700223270032196E7BDF81620079B0893402A28BF4022ADF81620E4
:20440000E7E700F035FF452203460121594800F037FFCFE73378002B99D06FE7DFF86C91F2
:20442000564BC9F80030A32333706CE7BDF8163050494E4808AD07F18402009508EE903A7C
:2044400008EE102AFFF7FCFE034600284DD14748099309A901F0C8FA494BD3F80090824666
:20446000B9F1000F67D0099B03979B46029B4D4699460AE006DD2A7AD10603D51BF80020CB
:204480002F2A08D02D68002D52D06F6838460FF077F88245EED10246594638460FF078F8EA
:2044A0000028EFD1A279039F4B460293511E0123012AA94603FA01F300F0C1809A0740F190
:2044C000A980D9F814A0BAF1000F00F0A38008AB2849009318EE102A18EE903A2348D04718
:2044E00099F80830590600F1C0803378002B7FF406AFA37D1A0759D5DFF8789099F906304F
:20450000002B53DB99F816301B074FD4DFF87C901C4BC9F80030A1233370F4E61A491548EA
:2045200001F03CFA4AE72189029800F0ADF9D2E6039FCDF808900F48842101F029FA0D482D
:20454000842101F025FA3378002B7FF4D8AE094807F1460100F0A2FE80B2A7F84400B8B931
:20456000C123DFF828903370CDE600BFD0080020FE2600207C090020103A0100303A01001C
:20458000CC080020203A0100DB080020D40000203378002B7FF4B3AE384600F011FC337805
:2045A00018460BB0BDEC028BBDE8F08F637D089AD91115D1002ACAD0DFF80891013218BFF8
:2045C00001224846402301F039FAB9F8A420D9F8A810402A28BF4022484601F04DFAB2E793
:2045E000079B9A4232D00132069944D0BDF81630DFF8D0900122334801F020FABDF816208F
:20460000B9F8A43093429ED9D9F8A8102D4801F033FA98E75D0705D5D9F818A0BAF1000FAD
:204620007FF455AF180705D5D9F81CA0BAF1000F7FF44DAF8521234801F0AAF97FE7D5F87C
:2046400010A0BAF1000F7FF442AF37E7DFF87490B9F8A400824219D382231B4989F80630CE
:2046600048460F2201F008FA6DE7164A1749484600F02AF939E7DFF84C90BDF81630B9F854
:20468000A4209A4294BF00220122B4E7BDF816300699821A9A4294BF00220122484601F01E
:2046A000CDF90798B9F8A430BDF81620D9F8A8101B1A9A42014428BF1A46484601F0DCF9AB
:2046C00041E700BF7C090020103A0100D008002010B50446416001460C4802F08BFC94F9BA
:2046E0000830002B00DB10BD206A0028FBD0036A002BF8D00268002AF5D0054BC0E9033449
:204700000830BDE81040002300F0CEBACC080020FD41000038B50A4A137803B138BD094CD5
:20472000094D236009490A482B6001241470FFF7CFFF00F033FCBDE8384000F091BD00BFCB
:20474000FC260020C8080020CC080020403A010084000020014B1868704700BFCC080020DE
:2047600000B10068704700BF00B583B001460190044802F0B5FD0199034803B05DF804EB1E
:2047800002F084BC78000020280A002070B50D4B1C68A4B10546002601E024686CB129463D
:2047A00004F1180000F0E4FB0028F6D02046FFF7DBFF24680136002CF1D1304670BD264639
:2047C000304670BD280A00202DE9F041164B1C682CB305460F4616464FF0000801E0246829
:2047E000D4B1294604F1180000F0C2FB0028F6D094F82C30B342F2D13246394604F12D0064
:204800000EF080FE0028EAD12046FFF7ADFF246808F10108002CE4D14046BDE8F081A04640
:204820004046BDE8F08100BF280A00202DE9F041144B1C680CB306460F464FF00008251DB8
:20484000314604F1180016B100F092FB78B1BD42284607D00EF094FE3946024628460EF060
:2048600051FE20B92046FFF77FFF08F101082468002CE4D14046BDE8F081A0464046BDE81A
:20488000F08100BF280A0020F8B50E4B1C68ACB105460E460027294604F1180000F068FB1A
:2048A00010B1E38EB34204D02468002CF3D13846F8BD2046FFF758FF0137F5E7274638469C
:2048C000F8BD00BF280A00208B79012B00D070472DE9F04792F90630002B82B0154650DB6A
:2048E000CB7C5B060C464CD5D1F8A070002F48D04B6E4BB1012B44D18A7A38460B3102B017
:20490000BDE8F047FFF760BF096E0191384694F80AA0D4F85C80FFF789FF204802F0C4FCA9
:20492000064688B3B8F1120FC146C4BF4FF01308C146B144424601994FF0000804300EF0AB
:20494000EFFD394606F1180089F8048000F000FB524604F10B0186F82CA006F12D000EF0E8
:20496000DFFD0F48A6F83680314602F043FBB16B4B1CB363284601F041F8B36B23F07F43E5
:20498000B36302B0BDE8F0870649A32328461022AB7102B0BDE8F04701F06EB87800002025
:2049A000280A0020543A01002DE9F04F2DED028B83B008EE101ADDF8389001929846FFF7C3
:2049C000C9FE002800F0B6800025D9F800B006462C46A34508D8454512D2019B4FF03C020F
:2049E0005A55D9F800B00135631C5B4508D3454506D2019B4FF02F025A55D9F800B0013583
:204A0000D6F804A050460EF0BBFD023427185F4558D801D145456DD3D6F80CB07C1CBBF125
:204A2000000F17D09BF80030A3B1D9F800A0A24509D8454507D2019A3B235355D6F80CB0A2
:204A4000D9F800A0013558460EF09AFD02373C18544512D8454504D9D9F80030621B9A42AB
:204A600071D83046FFF77CFE0646002847D0DCB9D9F800B0A345B7D8ADE70198384AAAEBAB
:204A8000070308F10101002BACBF5B440BF10003491B28440AF07EFB0544454553D8304626
:204AA000FFF75EFE0646B8B3D9F800B0A34507D8454505D2019A2C235355D9F800B00135FB
:204AC000013486E70198264AABEB040B08F10101BBF1000FACBF0AEB0B030AF10003491B00
:204AE00028440AF057FB0544454508D2D9F800309F4291D3019A3E23535501358CE715BBEE
:204B00005CB9BEB1D9F800304344C9F8003003B0BDEC028BBDE8F08FADB9822118EE100A62
:204B200000F036FF18EE100A0E490F2200F0A4FF002EE7D14FF0FF33C9F8003003B0BDEC71
:204B4000028BBDE8F08F019918EE100A2A4600F093FF18EE100A282100F02CFFD1E700BFFD
:204B6000683A0100103A0100014806F065BB00BFA80000202DE93048FFF71EFB0E4B1A68E9
:204B8000821A04D10D4BD3E90001BDE830880B4C18604FF47A71A2FB01BCD4E900254FEAC0
:204BA000DB1040EA4C6080184FEADC1145EB0101C4E90001BDE83088300A0020500400206B
:204BC0000148002106F086BAA8000020074B0848084A1B6810B4002101240470116013B143
:204BE0005DF8044B18475DF8044B7047883A0100FD260020440A00202DE9F0471E4B1B789A
:204C000082B0054643B3DFF874A029465046DAF8007002F03BFADAF8001019B3D5E90489CF
:204C2000002603E00C680E46F4B12146D1E90423994508BF9045F5D22A461048314602F044
:204C400049FADAF80050AF4209D00D4B9B68019302B0BDE8F0471847FFF7B8FFD3E702B030
:204C6000BDE8F087002DEED02A46044802F032FADAF80050E7E700BFFD260020440A0020F3
:204C8000883A0100064B10B55B6804469847C4E9040121460348BDE8104002F0F7B900BF95
:204CA000883A0100440A0020084970B5496805461E4614468847241846EB0101C5E9044162
:204CC0002846BDE87040FFF797BF00BF883A010038B50B4B1C687CB10A4B5B689847D4E99B
:204CE0000445A94208BFA04202D30020014638BD201A65EB010138BD4EF66020002138BD4B
:204D0000440A0020883A0100F8B5134F134E7C68A04735683DB102460B46D5E904018B4273
:204D200008BF824201D20020F8BD2946304602F0ADF96B680BB128469847BB68984733684A
:204D4000002BF0D0D3E90467A047B94208BFB0422CBF01200020F8BD883A0100440A002094
:204D600000B583B0014608300191FFF78BFF0199044802F08BF90199034803B05DF804EB82
:204D800002F0AEBA480A0020B800002070B5064609480D4602F088FA044658B1002386806A
:204DA00080F824302946263000F0D2F80348214602F020F9204670BDB8000020480A00200E
:204DC0002DE9F04190F8463013F0300F0446C3F3011526D190F82430042B13D8B0F844203D
:204DE00000F14601263000F0DFF894F8243023B3226A5200226204F108000023BDE8F04150
:204E0000FFF752BFD0E90F672630FFF7BFFC2046FFF7A6FF46B3294638463346BDE8F0411F
:204E20001847B0F8442000F14601263000F0BCF82046BDE8F041FFF793BF0C4BC4E9033416
:204E400006F082FA0A4BA3FB00239B0A40F2DD5202FB130202F6B832226204F1080000232C
:204E6000BDE8F041FFF720BFBDE8F081754E0000B76FA5AE806830B190F82430013380F8E4
:204E80002430FFF79DBF704708B1FFF769BF7047044B02E09A88824202D01B68002BF9D1C6
:204EA00018467047480A0020F8B50288044662B140F2B9139A4217D11D4B1B788B4217D066
:204EC00040F2B91323800120F8BD114610460BF07DF8184B186038B343F21633038240F243
:204EE000B91323800120EFE7002303800320F8BD114B1B789B07E3D5104E114F114DB7F8BA
:204F000000C0114F96E80F00203685E80F003CF806C00E4E3A883168A5F810C00023284663
:204F2000AB74FFF7B7F9CBE720800220F8BD00BF77310020640A002058300020602B00201B
:204F4000F2260020500A0020482B0020603000208B684A6830B40C68CD68C56004604260FF
:204F600083600B8A03828B7C837430BC704700BF38B5102205460C460EF0C4FA58B92A8A97
:204F8000238A9A4200D038BDA87CA37CC01AB0FA80F0400938BD002038BD00BF0148002110
:204FA00006F098B8C400002070B582B0B8B11446028848F2FE039A420E46054603D00A4B45
:204FC0005B6A984758B1094A2B8A10680093314622462B460CF02EFA204602B070BD4FF019
:204FE000FF34204602B070BDB43E0100640A00200C2830B440D9B0F5867F94BF6FF02F04F8
:205000006FF01F040C2935D9B1F5867F94BF0D230E232343B0F5867F137016D96FF486758C
:2050200043191B0A0D385370907002230320B1F5867F15D96FF486740C19D518240A0D3923
:205040001454A970D81C30BC70470C280FD90D38B1F5867F50704FF001034FF00200E9D827
:205060000C29F0D90D39115430BC0130704701200023DCE74BB2CCE703015CB2C2E700BF82
:205080002DE9F0411E0C13F07F474FEA06461C4615460B4614BF01210021CEB1013124F068
:2050A000FF080231C01A2A46FFF7A2FFCFB1230E2B54421C1EB3230CAB540230B8F1000F5E
:2050C00002D0230A2B5401302C540130BDE8F08134F0FF08E5D14CB9BDE8F041C01AFFF7CE
:2050E00087BF6EB1230C2B540130EAE70131C01AFFF77EFF002FDAD1002CE7D0E4E710463E
:20510000B8F1000FDDD1002CE0D0DDE7F8B50E689DF818700C461D4616B902602360F8BD2B
:2051200003689F550B6801330B600068114618442A460EF003FA23682B442360F8BD00BF87
:205140002DE9F047002481461C60104688461F4692460EF015FAC84409EB0005A8452DD935
:2051600006464C4605E00134A119884505F101051FD9A14503D014F8011C2629F3D12B7824
:205180003D2BF0D13246214650460EF001FA0028E9D101363444A8EB040842462046262113
:2051A000FCF72EF808B1A0EB04083C604046BDE8F0874FF000084046BDE8F087A046FAE798
:2051C000F8B5069D401A29461F46FFF711FF3946044610182A460EF0A3F92819F8BD00BF9B
:2051E0002DE9F04F83B092460C9A9DF83440019401320024984683469946009227462546C4
:205200008E4604E0009B01349C42274623D818F807C0019B08EB0706A6EB09069C450AEBD7
:205220000502ABEB0E00314602D00C9BBB42E9D1FFF7DEFE054449460AEB050032460EF002
:205240006FF90134009B08EB040901349C423544DE462746DBD9284603B0BDE8F08F00BF41
:2052600008B506F071F8014B188008BDE4260020024B1888013080B218807047E426002076
:20528000F8B504460F4616461D46AC2200210EF06FF96771A6712581F8BD00BFF0B50122DD
:2052A0000023016002710B7002680F461378017943EA811313700268437911781B0103F0B6
:2052C00030030B4313700268837A117803F00F030B431370036882795A70038902681B0AB9
:2052E000937003680289DA70837983B00446002B00F040810368827A1D1D62B16FF00301FF
:20530000C91A00F10B0313F8012B05F8012BA67A6A189642F7D8E37C9807C3F340010CD52C
:2053200094F86A3000932A4604F16B0300210120FFF746FFE37C054401211A0709D5236C0C
:205340000093636C2A460320FFF73AFFE37C05440321DE060BD594F8243000932A4604F1C1
:2053600025030420FFF72CFFE37C05440421980607D500232A460520FFF782FEE37C0544A3
:2053800005215A0607D5636E2A460620FFF778FEE37C05440621DB0907D02A46B4F85030B2
:2053A0000720FFF76DFE07210544237DDE070BD5A36C2F22CDE900320820E36C2A46FFF76A
:2053C0000FFF237D0544082118070BD5E36D2F22CDE900320B20236E2A46FFF701FF237D63
:2053E00005440B21DA0607D5A38B2A460C20FFF747FE237D05440C215E0607D5236A2A4624
:205400000E20FFF73DFE237D05440E21DB090CD0D4F894302622CDE900320F202A46D4F82A
:205420009830FFF7DDFE0F210544637D980708D5B4F868302A461120FFF722FE637D0544DA
:205440001121DA060BD5636D2622CDE900321420A36D2A46FFF7C4FE637D05441421DB09AC
:205460001AD0636F94F878201B01002A40F08580B4F87A2000201209461C52088446B0B268
:20548000FAD118B10CF00F0C43EA0C032A461720FFF7F6FD17210544A37D1E071BD5D4F813
:2054A000803094F884201B01002A69D1B4F8862000201209461C52088446B0B2FAD118B183
:2054C0000CF00F0C43EA0C032A461B20FFF7D8FDA37D05441B21D80607D52A46D4F88C30AC
:2054E0001C20FFF7CDFD1C210544E37D1A0709D5236B0093636B2A462320FFF761FEE37D74
:2055000005442321DB0908D0A36B00932A46E36B2720FFF755FE27210544A37EDB0611D4DB
:205520002368EB1A3E2B18DCB4F8A420E2B9D4F8A81028460EF002F8B4F8A400ED1B2844C5
:2055400003B0F0BDD4F890302A463C20FFF798FD23680544EB1A3E2BE6DD0B4B0B4A002038
:2055600020601A6003B0F0BDFF2305F8013BB4F8A420DCE7042003B0F0BD43F0080377E723
:2055800043F0080392E700BFD4000020A03A0100032A40F2CC802DE9F04704460D4682B0FF
:2055A000002191460430A8220DF0E2FF256095F800804FEA981884F804802B78C3F301132F
:2055C00063712A7802F00F02A2726B78A371A978EB78B8F1010F43EA012323817CD1082A96
:2055E00000F2AC80291D8E1805EB090A564576D804F10B000DF094FF00275645C4F8137024
:20560000C4F8177080F0A580337803F0F002F02A00F08781711C8A454FEA131003F00F0353
:205620005DD90D285FD00E2868D00D2B62D00E2B70D0CE18B24552D307443C2F4FD804EBB1
:20564000D70C07F007029CF8130008FA02F20243781E8CF8132002463B2A74D8DFE812F076
:205660007B0073008600890094009700A400B30073007300BD00C7007300D500E2007300A4
:20568000EC0073007300FB00730073000501730073007300240145017300730073007300C1
:2056A0007300730069007300730073006900730073007300730073007300730073007300CE
:2056C000730073007300730073007300730073007300730073005301A04BA14A1A60802095
:2056E00002B0BDE8F0877078B11C0D308A45F6D90D2B9CD111F8013B0D339AE77078B21CEB
:2057000092454FEA0020EAD9B27802F20D121044F11CEBE70E4616F8013BB2454FEA032332
:20572000DDD94A7802F20D121344023181E7802070478A4B8B4A1A60A520D1E7874B8A4A4E
:205740001A608020CCE7FB0700F10281B2453FF65BAF0020C4E7082B28BF08231A4684F8E4
:205760006A3004F16B000DF0DBFEEFE7C4E91031ECE7082B28BF08231A4684F8243004F158
:2057800025000DF0CDFEE1E784F89C80DEE74BB1013BC8180139002311F8012F884242EA53
:2057A0000323F9D16366D1E753B1013BC8180139002311F8012F884242EA0323F9D19BB28F
:2057C000A4F85030C2E72F200A46009004F1480104F14C00FFF79AFCB8E72F200A460090FC
:2057E00004F15C0104F16000FFF790FCAEE753B1013BC8180139002311F8012F884242EA3F
:205800000323F9D19BB2A383A0E74BB1013BC8180139002311F8012F884242EA0323F9D10A
:20582000236293E726200A46009004F1940104F19800FFF76BFC89E753B1013BC818013905
:20584000002311F8012F884242EA0323F9D19BB2A4F868307AE726200A46009004F15401B4
:2058600004F15800FFF752FC70E7002B6CD0013B0B440020013911F8012F8B4242EA0020A2
:20588000F9D100F00703102120F00F02994089B202FA03F3C0F3C002000984F87820A4F8BE
:2058A0007A10E367606751E7002B49D0013B0B440020013911F8012F8B4242EA0020F9D1D0
:2058C00000F00703102120F00F02994089B202FA03F3C0F3C002000984F88420A4F88610A6
:2058E000C4F88830C4F8800030E74BB1013BC8180139002311F8012F884242EA0323F9D14D
:20590000C4F88C3022E74BB1013BC8180139002311F8012F884242EA0323F9D1C4F89030F6
:2059200014E70136751BA9EB0505ADB2402D88BF40250020C4F8A860A4F8A4507055CFE6A1
:20594000184610211A46C7E7184610211A46A4E7024B064A1A608220C2E600BFD40000201C
:20596000D03A0100103B0100E83A0100383B010010B4047DE41107D013465DF8044B0A46DB
:20598000D0E92510FFF7DCBB20465DF8044B7047FF299ABF817101200020704710B5082A69
:2059A00028BF0822144682720B300DF0B9FD204610BD00BF037D818343F010030375012045
:2059C000704700BF082A38B528BF0822044680F82420253015460DF0A3FDE37C43F0100329
:2059E000E374284638BD00BF037DC3F3C0021B0702D5036E0B60C26D10467047C37C41663F
:205A000043F04003C3740120704700BF30B40446407DC0110FD009B1656F0D6012B194F85D
:205A20007810117013B1B4F87A201A80029B13B1029AE36F136030BC704700BF10B4A3F13D
:205A40001004B4F5FE6F02D8B1F5801F03D300205DF8044B7047447D4167003A64F07F0135
:205A600018BF012280F87820A0F87A3041755DF8044B0120704700BF0346402A28BF4022ED
:205A80001046A3F8A420C3F8A81070472DE9F04105F030FAFEF758FB07F064FE05F03CFBF4
:205AA00000216648664FDFF8EC81664D664C674E05F010FB00F0B4FB0CF092FB09F0ACFB3C
:205AC00005F020FA05F0D6FB614B1B6898477B689847D8F804309847A979EB79226803EB40
:205AE0000123022A338025DC5A4B29686A6819605A605948002105F0EDFA4FF0FF300AF061
:205B000025FE2368022B054600F3818005F01CFAFEF700FE5148FEF7ADF90CF08BFB05F0C2
:205B200001FB04460CF08EFB14F0FF0FF7D105F011FAF4E74A4A4B494B4805F027FA4B4881
:205B400005F08AFB2368022BCEDD454A4549464805F01CFA464B4748196805F017FA236880
:205B6000022BC1DD3E4A3F493F4805F00FFAD8F80010414805F00AFA2368022BB4DD384A98
:205B80003849394805F002FA39683C4805F0FEF92368022BA8DD324A3249334805F0F6F96E
:205BA00037484AF6CD3105F0F1F92368022B9BDD2B4A2C492C4805F0E9F932481A2105F03A
:205BC000E5F92368022B8FDD254A2649264805F0DDF931882C4805F0D9F92368022B83DDA0
:205BE0001F4A2049204805F0D1F9284805F0CEF92368022B7FF778AF284601F0B1FA236896
:205C0000022B7FF771AF0A2005F024FB6CE7144A1449154805F0BAF91D4805F0B7F92368DB
:205C2000022B7FF773AF284601F08AFA2368022B7FF76CAF0A2005F00DFB67E70C010020D1
:205C4000643C01004C2700202C010020E62600202C3D0100502B002050020020744001006B
:205C6000543B01005C3B0100643B0100743B0100B43E0100AC3B0100BC3B0100C83B0100D5
:205C8000D43B0100F03B0100103C0100203C0100383C0100A840010030B590F82D50012DA8
:205CA00083B0044611D91F2505F04EFB094BB0FBF5F11B68009301FB1501074A234604F13F
:205CC0000C0000F0BBFA03B030BDE91C01258D40013DE9E75C2800205D5D00002DE9F047C2
:205CE0000D468B6892F82C708146506BD3E90068144601F0CBF9686805F0F8FAA968134860
:205D000001F0EEFA1248294601F0EAFA636B1B6873B10023A3852046FFF7BEFF36B13A46CC
:205D2000494640463346BDE8F0471847BDE8F08704F10C0000F0CAFA2146064801F0A6F984
:205D40002146054801F0CCFAE8E700BFD8000020F0000020D00A0020E4000020F8B12DE985
:205D6000F047436B1D6882B00446ADB1686805F0D3FA63490C2005F0A5F80121072005F0A5
:205D800095F800F059F900280ADAAB6823B1052022462946FFF7A2FF02B0BDE8F087704729
:205DA00004F0DEFFDFF85C8190F80290D8F8047004F0D6FF064604F0DDFF01463046B8475F
:205DC00005F090F8D8F818600746B04770BB002F50D1D8F81CA0D04740BBD8F8087004F065
:205DE000C9FFB84700285CD002281FD0AB68002BD2D00420CCE707F0E9FC6FF028031E1A1A
:205E000003E007F0E3FCC64202D5D0470028F8D0D04700285DD0D8F81030032101A89847BB
:205E2000032803D19DF806304B452AD0AA68002AB2D094F82D300133DBB2052B84F82D309D
:205E400094F82C3006D90133DBB2002184F82C3084F82D10127A9A4205D8224629460120CB
:205E6000FFF73CFF98E72046FFF716FF686805F037FA91E7D8F8086004F07CFFB0470028CD
:205E8000B2D1AB68002B87D094F82C3000200133294684F82C3084F82D002246FFF71EFF43
:205EA0007AE707F093FC6FF018073F1A03E007F08DFCC74202D5D0470028F8D0B0470028BB
:205EC00099D1D047002896D1D8F814309847002891D0A96800293FF45FAF94F82C3001339F
:205EE000DBB2002284F82C3084F82D200A7A9A42B9D8224629460220FFF7F0FE4CE700BF92
:205F00004C2700202C3D01002DE9F04105460D200F4604F0DFFF064601F052F901210B20C9
:205F200004F0C4FF374B1C6814B914E0246894B13146201D01F056F80028F7D0606B01F074
:205F4000BFF807281EDDDDB138462B460122BDE8F041062118472C4801F0A6F904460028EE
:205F6000F1D03146201D01F037F8002304F13002C4E90C322348A385214601F03BF8DDE775
:205F8000BDE8F081214801F08FF9064660B3204801F08AF9B06018B305F080F97060D8B12C
:205FA0000520D6F8088004F087FFC8E9005710F0FF0006BF082388F8083088F80800606BEA
:205FC000314601F017F8636B1B689E42D8D12046BDE8F041FFF760BEB1680D4801F080F948
:205FE0000A48314601F07CF9606B01F069F80028A9D12146034801F049F82146024801F02D
:206000006FF9A0E7D00A0020E4000020F0000020D800002008B5054801F034F9044801F026
:2060200031F9BDE80840034801F02CB9F0000020D8000020E400002010B501210B2004F016
:2060400035FF024BBDE810405B6818479C3C0100014B9B68184700BF9C3C0100014B1B6AB8
:20606000184700BF2C3D0100014B5B6A184700BF2C3D010010B50D4B82B01B6898470C4BF7
:2060800004469B6A01A91920984701280BD0002C0198B8BF15248028D4BFC4EB0000C4F1D7
:2060A000800002B010BD002002B010BD9C3C01002C3D0100FFF728BF00B583B004F054FEF4
:2060C000032802D103B05DF804FBFFF7C1FF0028F8DB0D2004F0FEFE1F4900F083FFE8B17A
:2060E0000C2004F0F7FE1C4900F07CFF0028E9D101F070F8B8B1072004F0DEFE0028E1D047
:206100000223ADF8043004F02BFE144B8278DB688DF80620032101A89847D3E704F0E2FEE3
:206120000028DDD1CEE701F07BF8072004F0C4FE18B90B4B9B689847C4E70223ADF80430E1
:2061400004F00EFE054B8278DB688DF80620032101A89847EDE700BF4C2700202C3D0100CB
:20616000A840010030B50D4C83B0A56A69461920A84748B901A90420A84738B101F018F837
:20618000FFF748FF236A984703B030BD0199E36A21F00201019104209847EFE72C3D0100E6
:2061A000F8B5038805462BB14A2B14D1882916D00120F8BD174B1C6834B1A168201D00F0B8
:2061C00097F92468002CF8D1134B01221A704A232B800120F8BD002303800320F8BD0D4BDF
:2061E0001C68002CF3D0231D9A4205D02468231D002CECD09A42F9D10648084E214600F0E6
:2062000045FFD4E90523376832600BB1E06998473760DCE7B00B0020FF2600205C28002022
:20622000034A044B044800211170196004F052BFFF260020B00B0020FC00002070B50E4C9B
:20624000049E25784661C0E90623044635B9A1600A482146BDE8704000F0CCBE084D094B1C
:206260002E682B60043000F043F92E6021460348BDE8704000F0BEBEFF260020B00B00207C
:206280005C280020FC00002070B50C4B1B7804462BB921460A48BDE8704000F0ABBE094D44
:2062A000094B2E682B60043000F02CF92E6021460348BDE8704000F09DBE00BFFF2600203C
:2062C000B00B00205C280020FC00002010B50A4B1B7804463BB9C0E9033321460748BDE8FE
:2062E000104000F0D3BE043000F01EF921460348BDE8104000F0CABEFF260020B00B002053
:20630000094B1A7842B9094B01E0984209D01B68002BFAD1012070470069B0FA80F0400997
:2063200070470020704700BFFF260020B00B002010B50446C0B20BF01FFF0A2C01D02046E9
:2063400010BD0BF0E9FE204610BD00BFF8B588B10F46461E002500E0013516F8014F2046FE
:206360004CB1AF4207D00BF007FF0A2CF4D10BF0D3FEF1E705460BF0CFFE2846F8BD00BFC3
:2063800010B5FDF719FF0B4B1A68D2E9003192680B44191A52B1D2E9003423441B1A926864
:2063A000994228BF1946002AF5D14318024A136010BD00BFB80B0020B40B00202DE9F84313
:2063C000038805465BB3592B2CD187292FD0822920D12C4FDFF8B4803C684FF00009CCB11E
:2063E000002603E0A3682646A3B11C46204609F05BFF0028F6D0E0682246882104F0EEFE87
:2064000003464046002B2AD004F016FFA3682646002BEAD159232B800120BDE8F883194A57
:206420001360F7E7002303800320BDE8F883154F3968002019B9EDE789680120D9B1CB6888
:206440009342F9D000B139608B68002BE2D0D868904207BF9B688B6019469B68F5E7E3603D
:20646000A3686EB1B3603B68C4F808902BB1FFF787FF3C68B3E73960CCE7034A1360C9E796
:206480003B60F1E7B80B0020B40B00200C01002010B50446104804F0CFFE1049E3680A685C
:2064A0004BB142B194420FD0134601E09C420BD09B68002BFAD10A4BA2601B68E3600C60C3
:2064C000BDE81040FFF75CBF054B1B68E360BDE81040FFF755BF00BF0C010020B80B0020D2
:2064E0005C280020014804F0A7BE00BF0C01002010B5044609F0C2FE2046BDE81040FFF751
:20650000C7BF00BF10B5044609F0C0FE2046BDE81040FFF7BDBF00BF024B1868003818BF08
:2065200001207047B80B002010B5124B19688142044614D00B462BB19A68A24206D01346CA
:20654000002BF9D10023C4E9023310BDA2689A6049B1FFF715FF0023C4E9023310BD8268B0
:206560001A60002AF5D1044B00221A600023C4E9023310BDB80B0020B40B0020014B188846
:20658000704700BF2003002000283ED0037A022B30B410D00378022B15D00379B3B100240D
:2065A000C37913F0030318BF012301B10C6002B1136030BC7047C579447A037965B90CB959
:2065C000012BF2D0DBB100231C46EEE7447A14F0030418BF0124E3E7C4B1032D37D1032C7C
:2065E0002ED0022C24D143BB022D2DD00123032D24D1A4F10204B4FA84F46409D5E7023CDF
:20660000012C8CBF00240124CFE770474BB9022D08BF0123EAD1A4F10304B4FA84F4640944
:20662000C3E7032D01D0022D02D123461C46BCE7002BC8D1022DDAD1EDE701230024B4E7EA
:20664000002BC0D10123D4E701231C46ADE7022DC7D1002BF1D1022C4FF00103DBD11C4652
:20666000A3E700BF30B500230B608B80437DDB075CBF01230B70037E012B83B00D4604467A
:2066800023D901AA694604F11000FFF77DFF009B0BB10223EB70019B0BB102236B70E37D9E
:2066A00003F00303022B03D0032B14BF00230823AB70637E03F00303022B03D0032B14BF9C
:2066C000002308232B7103B030BDC37D13F0030309D0437E13F0030305D0C38B828B9B1A5F
:2066E000B3FA83F35B092375CBE700BF02280CBF012307230B441A78FF2A184603F1FF3339
:2067000003D18142F7D1012070470020704700BF30B583B06946FFF7A5FF9DF800309DF8F1
:2067200001509DF802409DF803109DF804209DF8050002332B4423440B441344184403B076
:2067400030BD00BF70B4437882780578C478DB00120102F0100203F008031343027905F045
:20676000070564012B4304F020049201234302F0400213430B7043798579467AC479027AF1
:2067800003F001036D0043EA861305F00205A0002B4300F00C001201034302F030021343F6
:2067A00070BC4B70704700BF70B582B00D4604466946FFF757FF04F110002946FFF7C2FF62
:2067C0009DF80030012B04BFA37EAB709DF801300CBF03200220022B06D1A38B2B54A38B14
:2067E000421C1B0AAB5402309DF8026056B1731E234429181A7801F8012BA34203F1FF33EC
:20680000F8D130449DF80330022B06D1E38B2B54E38B421C1B0AAB5402309DF8046056B160
:20682000F31D23442918073413F8012901F8012BA342F9D1304402B070BD00BF30B40278EC
:20684000437802F00700C2F3C005C2F300140870C2F34010C2F380124D708C7003F00105CB
:20686000C3F34004C8700A71C3F38100C3F301129B094D718C71C87130BC0A724B727047F7
:20688000012943DD2DE9F04186B00F4603A914460546FFF7D3FF03AB03CB9DF811201B88DE
:2068A0002383206161616AB3AE1C03A802AA01A9FFF76AFE9DF81380B8F1000F43D0029B19
:2068C000002B31D1B8F1020FA38367D0B8F1030F4DD09DF81580B8F1000F2CD0019BBBB9AE
:2068E000A38BE383B8F1020F4DD0B8F1030F31D0701B3B1A8742C4E90E6300DA002006B0FA
:20690000BDE8F081AB78A376EE1CCEE700207047717816F8023B029A03EB01239BB2E383FA
:20692000002ADFD1A383DDE7727816F8023B03EB02239BB2C6E71E4904F1080000F04CFBB6
:20694000A4F81E80D4E71A49204600F045FBA4F81C80BEE706F10800034604F1080213F81A
:20696000011D02F8011BB342F9D10646C0E706F108000346621E13F8011D02F8011FB34231
:20698000F9D10646A5E70A4904F1080000F024FB7378237216F8023B6372A9E70449204613
:2069A00000F01AFB7378237016F8023B637090E7A83C010030B591B004F0C2F9044604F0C7
:2069C000D3F96A4601462046FFF75AFF00283ED0044604F099F9D0B39DF810100B2004F0E2
:2069E00065FA9DF81310072004F060FA9DF817308BB1BDF81C50FFF7C1FD854205D0BDF8CD
:206A00001C204FF6FF739A4221D19DF817006946FFF76CFEB0B102A90C2004F053FA9DF8EC
:206A200015303BB14FF6FF71062004F03FFA204611B030BD9DF81A10062004F037FA204699
:206A400011B030BD69460D2004F03CFAE3E74FF0FF34ECE7F8B505460B2014460E46A847B3
:206A600000232074A37496B3E37463750820A847002701232376A07567740620A847A076BA
:206A8000FFF77CFDE0830920A84701280CBF3B4603236376FFF772FDA0830A20A8470128CE
:206AA0001AD066B90323E375637E022B0CD0E37DA3F10203B3FA83F35B092375F8BD022373
:206AC000E375637E022BF2D101232375F8BD0720A8476675E074C9E7E775E5E730B591B0D9
:206AE0000546FFF74BFD4FF6FF74A0423AD04022002168460CF03CFD04F0F4F96A4601462B
:206B00001A48FFF7A7FF04F0EDF918B3ADF800400C2004F0DFF9014602A800F05DFA04F0C9
:206B20000FF90E9004F020F9034668460F93FFF7EFFD044615B9204611B030BD04F0B4F85B
:206B400080B104F00DF901466846FFF72DFE204611B030BD0D2004F0BDF90146684600F024
:206B60003BFAD5E74FF0FF34E5E700BFB9AE00000120FFF7B3BF00BF0020FFF7AFBF00BF35
:206B80000649074A074B9B1A03DD043BC858D050FBDC09F021F9FAF7F3FB00009044010051
:206BA0000800002030030020FEE7FEE7FEE7FEE7FEE7FEE7FEE7FEE7FEE7FEE700F01F0356
:206BC0000121C0F34710994000F066B808B501F041FC00B108BDBDE8084001F0F1BB00BFF8
:206BE00030B583B01446022301F01F0100228DF8063014F00C0341EA4015ADF8042006D0DE
:206C0000042B25D0082B27D00C2B02D103238DF8043014F0030304D0022B15D0012B02D14E
:206C200003238DF805300E4A01A9284601F01CFC2306284603D401F015FD03B030BD0121C8
:206C400001F0A4FC03B030BD01238DF80530EAE701238DF80430DCE702238DF80430D8E717
:206C6000BD6B000001F01F0141EA40101F28CABF054B4FF0A04300F01F00D3F8101521FA04
:206C800000F000F001007047000300500146014800F0B0B9BC0B002070B50C4B1C689CB1EC
:206CA00005460E4601E0246874B1237AAB42FAD1E36816EA0301F6D063682846002BF2D013
:206CC00098472468002CF0D170BD00BFBC0B0020024B00221A60FFF779BF00BFBC0B0020CC
:206CE000EFF3108072B6704780F31088704700BF70B41A4A1A4D0023012440FA03F1C9078D
:206D000012D59178B9B11178567801F01F0141EA46111F29C6BF01F01F012E464FF0A046B8
:206D200004FA01F1C6F808150133042B02F10302E3D170BC70471178567801F01F0141EA03
:206D400046111F29C6BF01F01F012E464FF0A04604FA01F1C6F80C15E6E700BFE0390100F0
:206D6000000300500E4A30B40E4D02F10C0403201378517803F01F0343EA41131F2BC6BF4A
:206D800003F01F0329464FF0A04103F5E0730332944241F82300EBD130BC0F20FFF7A8BF69
:206DA000E03901000003005010B50948FFF76CFA084800F09BFB50B1064C01460B7A5B089C
:206DC0000B72204600F05EFB01460028F6D110BD2C2700201C0100200146014800F0B4BBE5
:206DE0001C01002080B110B50446FDF7E5F92368C01AB0F5963F05D2207A032894BF002056
:206E0000012010BD002010BD0020704770B50546144689B1022907D006290CD10146BDE8C2
:206E200070402A4800F090BB0146284800F08CFB0646002832D170BD0146244800F084FB01
:206E40000646002835D0FDF7B7F9337A30602344102BA8BF10233372FDF7AEF93368C01AE7
:206E6000E401B0F5963FA4B208D2337A042BB38834BF19220A222BB9B48070BDB388192257
:206E8000002BF9D002FB04F41149C2F1640203FB0242A1FB02325209B28070BDFDF78CF951
:206EA000337A30602344102BA8BF102333720C34D2E7334605482946082200F0A5FB064680
:206EC0000028B8D047F6FF73C380BCE71C0100201F85EB5138B50546042003F0EDFF2946A6
:206EE0000446214824B200F02FFB38B3B0F9063047F6FF7293422CD004EB840462005A254E
:206F00001A4C818813FB052384FB0324DB17C3EB641424B2C48081B904F15A0212B222EA99
:206F2000E2721E2A124BA8BF1E22D201A3FB0232120902F5807292B2828038BD0346294615
:206F40000948082200F060FB0028F6D047F6FF73C3808388C480002BEFD147F6FF739C42C4
:206F6000DAD14FF48072E7E71C0100201F85EB518988888838B5094800F0B8FA60B1074DE0
:206F800004462146284600F0ADFB2146284600F079FA04460028F4D138BD00BF1C010020DA
:206FA00000B5002183B0084800F04AFA074B084A1B680093074800234FF4E131FFF73EF996
:206FC00003B05DF804FB00BF1C0100205C280020A96D00002C2700200B684A684260036057
:206FE000704700BF08B508220CF08CFAB0FA80F0400908BD0368DBB110B4002400E0134672
:2070000099420FD01A681C46002AF8D100230B600368CBB11A461B68002BFBD111605DF8CA
:20702000044B70470A686CB1226000221A60EDE700230B6003684BB11A461B68002BFBD1FA
:20704000116070470260F0E70160E8E70160704730B405684DB12B46002400E0134699428F
:2070600007D01A681C46002AF8D10D6030BC016070470A683CB1226000221A6005680D609A
:2070800030BC016070470260F6E700BF03689BB110B4002400E0134699421A6805D01C4682
:2070A000002AF8D15DF8044B704734B1226000221A605DF8044B704770470260F7E700BF6E
:2070C00003682BB100201B680130002BFBD170471846704730B479B1036843B1002500E060
:2070E00023469A4217D01C681D46002CF8D10B6813600A6030BC7047056845B12B4600E0E1
:2071000023469A4210D01C681946002CF8D11560026030BC704725B110682860002018608A
:20712000E5E714680460F9E739B114680C6000211960056815600260EBE711680160F6E78A
:2071400000B58BB00246282168460AF099FE6946024803F01BFF0BB05DF804FB683A0100B7
:20716000F0B170B50024104E054654B1E3070DD5295D304603F00AFF072C10D00134002C3F
:20718000F4D12978304603F001FFF7E72E2004F061F8295D304603F0F9FE072CEED170BDA2
:2071A000024803F0F3BE00BFC03C0100B03C010008B504F0C9F8014B187008BD00270020E6
:2071C000034B197806204A1C1A7003F06FBE00BF00270020F8B5FCF7EFFF104E07463446E1
:2071E00000250C2003F076FE2146FFF7FBFE103420B90135102DF4D10020F8BD062006EB40
:20720000051503F059FE2B7B8342F5D1A868381AB0F5206F8CBF00200120F8BD800C002056
:20722000F8B5174E0024374635460C2003F052FE2946FFF7D7FE1035F8B90134102CF4D14B
:207240000F2407EB0414254654F8100D6168A268E368A6420FC5F6D1062003F02DFE38738D
:20726000FCF7AAFF0346BB600C2003F033FEBDE8F84001460248FFF7AFBE002CE1D1EBE73D
:20728000800C002010B504464288406800210CF06FF923886288A06802FB03F2BDE81040B8
:2072A00000210CF065B900BF30B44588ADB14368002202E00132AA420CD0194601330C7804
:2072C000002CF7D101230B700588806802FB050030BC7047002030BC70472846F8E700BF32
:2072E00030B44488826854B18A420CD00588002301E0914208D00133A3422A44F9D14FF07B
:20730000FF3030BC704700234268D15C0029F6D00020D05430BC704783688B4208D8428869
:20732000008800FB023081422CBF00200120704700207047418849B143680020194413F825
:20734000012B02B901308B42F9D170470846704738B50D4B0D4D1C68002818BF05463CB168
:20736000211D2846FFF73EFE28B92468002CF7D14FF0FF3038BD064A064B9068241AA010E4
:2073800003FB00F038BD00BFB00D0020A83C010030010020ABAAAAAA2DE9F84F224CDFF8ED
:2073A0009CA0DFF88C90214F0546884604F1200B54F8043FBBB19E68AEB1A5B1D9F8082046
:2073C000AA1A91100C3207FB01F10CD05A68D86802FB010038B11AF801201B6842FA03F369
:2073E000DB0700D5B0475C45E2D1D5B1104B0F4A9B68EB1A9B1002FB03F30E490E480022DC
:20740000CA5429460AF80320FFF740FEB8F1000F01D1BDE8F88F29460548BDE8F84FFFF732
:207420005FBF4FF0FF33E8E77C0D0020ABAAAAAA30010020A00D0020B00D0020880E0020EB
:2074400038B10368072B04D80C4A52F82330984210D00B4A1368072B0AD830B4074C03609F
:207460005D1C8160156044F82300012030BC70470020704781600120704700BF800D00201E
:20748000840E0020F0B5164B164D9C68164E20B301B3C768D0F804C0C91B91FBFCF101EBDE
:2074A0004102013119D014EB820314D054F82230A3EB040E4FEAAE0205FB02F20CFB027171
:2074C0004BB11EF10C0F08D021B1B35C02681341DB07DCD50B461846F0BD00231846F0BDF2
:2074E00030010020ABAAAAAA880E0020124B1968F9B1124B9B68C91AD0B111F10C0F17D08C
:2075000010B40F4B4468C268891003FB01F304FB032149B10B4C0268E35C1341DB0703D5C1
:2075200008465DF8044B70475DF8044BFFF7AABF0021FFF7A7BF00BFB00D00203001002035
:20754000ABAAAAAA880E002010B504460846FFF7FFFE84B1431C02460DD06368E06803FBB2
:20756000020038B1054B21689B5C0B4113F0010F08BF002010BD002010BD00BF880E0020DB
:207580002DE9F84316460D46FFF7DEFF28B10024012006B13460BDE8F88304462846FFF7E1
:2075A000D7FE0130F3D11448FFF7C4FE0028EED1124B1D68F5B1DFF84C90DFF83C80104FD9
:2075C00006E02046291D05F00BFB04462D686DB1D8F80830EB1A9B1007FB03F319F803302D
:2075E000002BF3D1002CECD12C1DEFE7201E18BF0120CEE72046CCE730010020B00D002062
:20760000ABAAAAAAA00D00202DE9F04182B060B32F4B0C46002908BF1C46214601AA0546ED
:20762000FFF7AEFF08B32046FFF792FE461C21D06A68EC6800FB0244002120460BF098FF2D
:20764000EB686A68E31A93FBF2F35A1C06D021492D68C85C0122AA400243CA54204602B09E
:20766000BDE8F081B8F1000F1DD10024204602B0BDE8F081184FDDF804803846FFF714FEB6
:2076800006460028EED015483146FFF7B3FCBB682146301DF41AFFF79FFC14F10C0F12D1C6
:2076A0006A680024C8E74046FFF752FE411CDCD0BB6800EB400013EB8006D6D00021304641
:2076C000FFF76AFEDFE7064BA01003FB00F0AFE7A83C0100880E002030010020B00D002038
:2076E000ABAAAAAA18B319B3C3684268CB1A93FBF2F35A1C1CD070B40F4E0568F45C01225A
:2077000002FA05F524EA0504F454C3684468CB1A93FBF4F3591C0DD0084C0068E15C02FA9C
:2077200000F021EA0001E154104670BC70477047002070471046F8E7880E0020A00D002099
:2077400098B199B1C2684368891A91FBF3F14B1C0CD010B4064A0368545C012000FA03F32B
:20776000234353545DF8044B7047704700207047A00D0020A0B1A1B1C2684368891A91FB9F
:20778000F3F14B1C0DD010B4074C0268635C012000FA02F223EA020363545DF8044B70474E
:2077A00070470020704700BFA00D002088B179B1C3684068C91A91FBF0F14B1C08D0054B9A
:2077C000986801EB410110EB810002D004307047002070473001002070B50B4B1C685CB10E
:2077E00005460E46012D09D01DB963680BB1984718B92468002CF5D1002070BDA36830468A
:20780000002BF6D09847F3E7980E0020064B074A01211960D2F8503513F0FF03FAD1C2F8E2
:20782000FC3F0120704700BF1010004000100040A1B1192810D8DFE800F00D770F0F6E651F
:20784000605B453F0F3A0F0F0F36322E2A0F26221E1A171300207047012070470220704772
:207860007D230B600020704700200860704710230B60002070470A230B60002070472023C0
:207880000B600020704703230B600020704708230B6000207047D8230B60002070471A2357
:2078A0000B60002070470B230B6000207047244B1B780B6000207047224B93F900300B603E
:2078C00000207047204B214A012082B018601368002BFCD00020106012681D4B0192019A1E
:2078E000D3F8483503F07F035B420B6002B07047184B5B790B6000207047164B5B780B6042
:2079000000207047134BDB7800200860002BA1D001230B6070470F4B1B7800200860002BD5
